:100000000C941B010C944C010C944C010C944C016D
:100010000C944C010C944C010C944C010C944C012C
:100020000C944C010C944C010C944C010C944C011C
:100030000C944C010C944C010C944C010C944C010C
:100040000C944C010C944C010C944C010C944C01FC
:100050000C944C010C944C010C944C010C943D03F9
:100060000C944C010C94B1030C9487030C944C0138
:100070000C944C010C944C010C944C010C944C01CC
:100080000C944C010C944C010C944C010C944C01BC
:100090000C944C010C944C010C944C010C944C01AC
:1000A0000C944C010C944C010C944C010C944C019C
:1000B0000C944C010C944C010C944C010C944C018C
:1000C0000C944C010C944C010C944C010C944C017C
:1000D0000C944C010C944C010C944C010C944C016C
:1000E0000C944C010C9423050C946B050C94A20504
:1000F0000C949C050C946F050C94F5010C948802EB
:100100000C94B1050C9486050C94A6050C94A501DD
:100110000C947C050C9494050C9480050C943B0283
:100120000C948A050C948E050C9473050C9476053A
:100130000C9403020C9498050C9467050C94D2015E
:100140000C941E050C94E101000020002300260001
:1001500029002C002F0032000001000003010601DD
:10016000090105050505070508080808020202023D
:100170000A0A080804040404010101010101010143
:100180000303030303030303040707070C0C0C0C0E
:100190000C0C0C0C020202020606060606060606F7
:1001A0000B0B0B0B0B0B0B0B010210202008081084
:1001B00020401020408002010201080402010102D7
:1001C00004081020408080402010080402018004B0
:1001D000020180402010080402010804020101020B
:1001E0000408102040800102040810204080000014
:1001F0000A0B02090C0D0E080703040100000000A1
:1002000000000000000000000000000000000000EE
:1002100000000000000000000000121110000000AB
:1002200000000000000000000000000000000000CE
:1002300000000000B10511241FBECFEFD1E2DEBFE8
:10024000CDBF00E00CBF12E0A0E0B2E0E4E1FCE0D2
:1002500000E00BBF02C007900D92A43CB107D9F794
:1002600023E0A4ECB2E001C01D92AB36B207E1F787
:1002700011E0CBE1D1E000E006C021970109802F19
:10028000FE010E940006CA31D10780E00807A9F7E5
:100290000E94E7030C9408060C9400003FB7F89402
:1002A0008091CA029091CB02A091CC02B091CD0274
:1002B00026B5A89B05C02F3F19F00196A11DB11DC1
:1002C0003FBFBA2FA92F982F8827BC01CD01620FFD
:1002D000711D811D911D42E0660F771F881F991FB8
:1002E0004A95D1F708958F929F92AF92BF92CF9285
:1002F000DF92EF92FF924B015C010E944E016B0175
:100300007C010E944E016C197D098E099F09683E8F
:10031000734081059105A8F321E0821A9108A10894
:10032000B10888EEC80E83E0D81EE11CF11C8114D0
:100330009104A104B10429F7FF90EF90DF90CF90D2
:10034000BF90AF909F908F900895AF92BF92CF9241
:10035000DF92EF92FF920F931F93CF93DF936C0185
:100360007B018B01040F151FEB015E01AE18BF0866
:10037000C017D10759F06991D601ED91FC91019018
:10038000F081E02DC6011995892B79F7C501DF9120
:10039000CF911F910F91FF90EF90DF90CF90BF9082
:1003A000AF900895FC01538D448D252F30E0842FAC
:1003B00090E0821B930B541710F0CF96089501978D
:1003C0000895FC01918D828D981761F0A28DAE0F7A
:1003D000BF2FB11D5D968C91928D9F5F9F73928F01
:1003E00090E008958FEF9FEF0895FC01918D828D2D
:1003F000981731F0828DE80FF11D858D90E00895FA
:100400008FEF9FEF0895FC01918D228D892F90E051
:10041000805C9F4F821B91098F73992708958EEC02
:1004200092E00E94030221E0892B09F420E0822F50
:100430000895FC01A48DA80FB92FB11DA35ABF4F79
:100440002C91848D90E001968F739927848FA689D3
:10045000B7892C93A089B1898C91837080648C9327
:10046000938D848D981306C00288F389E02D8081D6
:100470008F7D80830895EF92FF920F931F93CF9308
:10048000DF93EC0181E0888F9B8D8C8D98131AC0CF
:10049000E889F989808185FF15C09FB7F894EE89B6
:1004A000FF896083E889F989808183708064808313
:1004B0009FBF81E090E0DF91CF911F910F91FF905E
:1004C000EF900895F62E0B8D10E00F5F1F4F0F7306
:1004D0001127E02E8C8D8E110CC00FB607FCFACFC1
:1004E000E889F989808185FFF5CFCE010E94190244
:1004F000F1CFEB8DEC0FFD2FF11DE35AFF4FF08292
:100500009FB7F8940B8FEA89FB8980818062CFCFF7
:10051000CF93DF93EC01888D8823B9F0AA89BB893A
:10052000E889F9898C9185FD03C0808186FD0DC025
:100530000FB607FCF7CF8C9185FFF2CF808185FF46
:10054000EDCFCE010E941902E9CFDF91CF9108953E
:1005500080E090E0892B29F00E940F0281110E9417
:10056000000080E090E0892B49F080E090E0892B4A
:1005700029F00E94000081110E94000080E090E0BC
:10058000892B49F080E090E0892B29F00E9400003F
:1005900081110E94000080E090E0892B49F080E00A
:1005A00090E0892B29F00E94000081110C9400003A
:1005B0000895FC0101900020E9F73197AF01481B35
:1005C000590BBC018EEC92E00C94A501CF92DF9206
:1005D000EF92FF920F931F93CF93DF93CDB7DEB7C8
:1005E000A1970FB6F894DEBF0FBECDBF282F30E025
:1005F00050E040E019A28E010F5D1F4F6B01770F95
:10060000EE08FF08CA01B901A70196010E94DE05A4
:10061000605DF80162938F01211531054105510597
:1006200089F73097C9F0CF010E94D9028C0182E18D
:1006300092E00E94D902800F911FA1960FB6F89404
:10064000DEBF0FBECDBFDF91CF911F910F91FF9005
:10065000EF90DF90CF90089510E000E0E8CFCF93C7
:10066000DF930E94D902EC0182E192E00E94D9025C
:100670008C0F9D1FDF91CF9108951F920F920FB69F
:100680000F9211242F933F938F939F93AF93BF9318
:100690008091C6029091C702A091C802B091C90290
:1006A0003091C50223E0230F2D3758F50196A11D87
:1006B000B11D2093C5028093C6029093C702A093F8
:1006C000C802B093C9028091CA029091CB02A09156
:1006D000CC02B091CD020196A11DB11D8093CA023A
:1006E0009093CB02A093CC02B093CD02BF91AF9177
:1006F0009F918F913F912F910F900FBE0F901F9060
:10070000189526E8230F0296A11DB11DD2CF1F9286
:100710000F920FB60F9211240BB60F922F933F93A7
:100720004F935F936F937F938F939F93AF93BF93F9
:10073000EF93FF938EEC92E00E941902FF91EF91EC
:10074000BF91AF919F918F917F916F915F914F91E9
:100750003F912F910F900BBE0F900FBE0F901F90E7
:1007600018951F920F920FB60F9211240BB60F928D
:100770002F938F939F93EF93FF93E091DE02F0917D
:10078000DF028081E091E402F091E50282FD1DC06C
:1007900090818091E7028F5F8F732091E80282172A
:1007A00041F0E091E702F0E0E253FD4F958F809336
:1007B000E702FF91EF919F918F912F910F900BBEC8
:1007C0000F900FBE0F901F9018958081F2CF7894F4
:1007D00084B5826084BD84B5816084BD85B5826046
:1007E00085BD85B5816085BD80916E0081608093F7
:1007F0006E00109281008091810082608093810060
:10080000809181008160809381008091800081606F
:10081000809380008091B10084608093B1008091CA
:10082000B00081608093B0008091910082608093DD
:10083000910080919100816080939100809190005F
:100840008160809390008091A10082608093A100DC
:100850008091A10081608093A1008091A0008160BF
:100860008093A0008091210182608093210180917A
:10087000210181608093210180912001816080931A
:10088000200180917A00846080937A0080917A00C0
:10089000826080937A0080917A00816080937A00F0
:1008A00080917A00806880937A001092C100E09174
:1008B000DE02F091DF0282E08083E091DA02F091C3
:1008C000DB021082E091DC02F091DD028FEC80838C
:1008D0001092E602E091E202F091E30286E080836A
:1008E000E091E002F091E102808180618083E091FB
:1008F000E002F091E102808188608083E091E00273
:10090000F091E102808180688083E091E002F091C3
:10091000E10280818F7D808368EC70E080E090E070
:100920000E94730184E192E00E942F0385E192E02E
:100930000E942F0381E292E00E942F038FEF81B982
:1009400085E392E00E94D90281B162E070E00E94EA
:10095000E60280E492E00E942F0382E592E00E948A
:100960002F0307E711E0F801C49185E692E00E94A9
:10097000D9026AE070E08C2F0E94E6029DEBE92E1E
:1009800091E0F92EF701C49186E792E00E94D90226
:100990006AE070E08C2F0E94E60287E892E00E94F5
:1009A0002F038AB162E070E00E94E6028AB1C0952E
:1009B000C82BCAB98AB162E070E00E94E6021092C8
:1009C000C40285E992E00E942F0386EA92E00E9429
:1009D0002F0323E0622E22E0722E55245394812CA3
:1009E000912C54018394CC24C394D12CF301849191
:1009F000F7012491F8019491992309F4ABC088235D
:100A000011F181508231F8F4E82FF0E08827E45F9B
:100A1000FA4F8F4F0C9400066F0573051E0567058E
:100A20006B05230576057C05800586058A058E0500
:100A30009405980523059C05A205A60580918000D4
:100A40008F7780938000E92FF0E0EE0FFF1FE85BC7
:100A5000FE4FA591B4918C91282309F47BC082EBC1
:100A600092E00E942F035092C4028091C402882316
:100A700059F1D0E0C0E022B1D501C4010C2E04C070
:100A8000880F991FAA1FBB1F0A94D2F7822B82B925
:100A900088EB92E00E942F0382B162E070E00E9436
:100AA000E60268EE73E080E090E00E94730182B19C
:100AB00096010C2E01C0220F0A94EAF7822782B910
:100AC0002196C830D105B9F60E94A8028FCF809137
:100AD00080008F7DB6CF80918000877FB2CF84B5B4
:100AE0008F7784BDB0CF84B58F7DFBCF8091B00070
:100AF0008F778093B000A7CF8091B0008F7DF9CF22
:100B0000809190008F77809390009DCF809190008E
:100B10008F7DF9CF80919000877FF5CF8091A000E5
:100B20008F778093A0008FCF8091A0008F7DF9CF29
:100B30008091A000877FF5CF809120018F778093EF
:100B4000200181CF809120018F7DF9CF80912001FC
:100B5000877FF5CF60E370E080E090E00E94730152
:100B600084CFEEECF2E01382128288EE93E0A0E0F4
:100B7000B0E084839583A683B78384E092E0918379
:100B8000808385EC90E09587848784EC90E097875C
:100B9000868780EC90E0918B808B81EC90E0938B4A
:100BA000828B82EC90E0958B848B86EC90E0978B27
:100BB000868B118E128E138E148E0895A1E21A2E3A
:100BC000AA1BBB1BFD010DC0AA1FBB1FEE1FFF1FF1
:100BD000A217B307E407F50720F0A21BB30BE40B41
:100BE000F50B661F771F881F991F1A9469F7609588
:100BF0007095809590959B01AC01BD01CF01089542
:100C0000EE0FFF1F881F8BBF0790F691E02D199400
:040C1000F894FFCF86
:100C1400000000003B02A501D20188020302E101A9
:100C2400F5010D0A00536574757020626567696E7D
:100C34000073657475704C656473506F72742062D0
:100C44006567696E004C656420626974733A2000BC
:100C540073657475704C656473506F727420656E3F
:100C64006400736574757042746E506F72742062A0
:100C74006567696E00427574746F6E2070696E20CA
:100C8400706F72743A00427574746F6E2070696E7E
:100C9400206D61736B3A0053657474696E67204408
:100CA4004452443A00736574757042746E506F72A6
:100CB4007420656E6400536574757020656E646598
:100CC4006400505245535300506F72742073746122
:040CD40074653A0009
:00000001FF
